:100000000C9463000C948B000C948B000C948B006C
:100010000C948B000C948B000C948B000C948B0034
:100020000C948B000C948B000C948B000C94D201DC
:100030000C948B000C948B000C948B000C948B0014
:100040000C9406040C948B000C94F9050C948B0012
:100050000C948B000C948B000C948B000C948B00F4
:100060000C948B000C948B000000000024002700EF
:100070002A0000000000250028002B0000000000DE
:1000800023002600290004040404040404040202DA
:100090000202020203030303030301020408102007
:1000A0004080010204081020010204081020000012
:1000B0000007000201000003040600000000000029
:1000C00000008F027E0711241FBECFEFD8E0DEBFF5
:1000D000CDBF11E0A0E0B1E0E2EEF3E102C0059097
:1000E0000D92AA30B107D9F711E0AAE0B1E001C042
:1000F0001D92A23EB107E1F710E0C6ECD0E004C0CB
:100100002297FE010E94EB09C23CD107C9F70E9469
:10011000FF030C94EF090C940000FC0180910A018C
:100120008C3090F480838F5F80930A01815090E03F
:10013000FC01EE0FFF1FE80FF91FE55FFE4F88EB94
:100140009BE09283818308958FEF80830895FC0163
:1001500020812C30C0F58181992787FD909548E852
:1001600050E0481B590B440F551F440F551F64178F
:10017000750784F08281992787FD909548E552E0C4
:10018000481B590B440F551F440F551F6417750723
:100190000CF4AB01CA01AA2797FDA095BA2F0697C8
:1001A000A109B109880F991FAA1FBB1F4FB7F89467
:1001B00030E0F901EE0FFF1FE20FF31FE55FFE4F86
:1001C000928381834FBF0895AF92BF92CF92DF9207
:1001D000EF92FF920F931F93CF93DF93EC019B015C
:1001E00082E0603278070CF048C077FF03C020E05F
:1001F00030E005C0653B710514F024EB30E000D021
:1002000000D0B901882777FD8095982F2981332761
:1002100027FD3095B8E8AB2EB12CA21AB30AAA0C70
:10022000BB1CAA0CBB1CCC24B7FCC094DC2CEA8100
:10023000FF27E7FDF09528E532E02E1B3F0B220F4C
:10024000331F220F331F442737FD4095542FEDB73E
:10025000FEB7218332834383548320E030E040E0C3
:1002600050E0E4EBEE2EF12C012D112D0E94EF0752
:100270009B010F900F900F900F90CE01B9010E943B
:10028000A700DF91CF911F910F91FF90EF90DF902A
:10029000CF90BF90AF900895CF92DF92EF92FF92F0
:1002A0001F93CF93DF93EC01162F7A0169018881A8
:1002B0008C3008F064C0862F61E00E940B058881B5
:1002C00090E0FC01EE0FFF1FE80FF91FE55FFE4F06
:1002D0001F738081807C812B808380E292E08E1965
:1002E0009F0964E070E00E948509698380E699E0D7
:1002F0008C199D0964E070E00E9485096A83A881D9
:100300008A2F6CE00E947909682F70E0AB01440FDE
:10031000551F460F571F440F551F440F551F20E010
:1003200030E0C901840F951FFC01EE0FFF1FE80F9D
:10033000F91FE55FFE4F808186FD15C02F5F3F4F9F
:100340002C30310571F724C01092800082E0809338
:1003500081001092850010928400B19A80916F0004
:10036000826080936F008A2F90E0FC01EE0FFF1FE8
:10037000E80FF91FE55FFE4F8081806480838881EC
:10038000DF91CF911F91FF90EF90DF90CF90089574
:10039000672BD1F2E8CF40E252E020E639E00E943C
:1003A0004C0108951F920F920FB60F9211242F93B4
:1003B0003F934F935F936F937F938F939F93AF93ED
:1003C000BF93EF93FF9380912F0187FF05C0109299
:1003D0008500109284002BC020912F01332727FD28
:1003E000309580910A0190E02817390704F5809133
:1003F0002F01992787FD9095FC01EE0FFF1FE80F55
:10040000F91FE55FFE4F808186FF11C080912F01AB
:10041000992787FD9095FC01EE0FFF1FE80FF91F4C
:10042000E55FFE4F80818F7360E00E942B05809115
:100430002F018F5F80932F0120912F01332727FDFC
:10044000309580910A0190E0281739070CF04EC0D2
:1004500080912F018C300CF049C0209184003091A4
:10046000850080912F01992787FD9095FC01EE0F63
:10047000FF1FE80FF91FE55FFE4F81819281280F72
:10048000391F309389002093880080912F0199278C
:1004900087FD9095FC01EE0FFF1FE80FF91FE55F48
:1004A000FE4F808186FF2AC080912F01992787FD0A
:1004B0009095FC01EE0FFF1FE80FF91FE55FFE4F5F
:1004C00080818F7361E00E942B0518C080E49CE955
:1004D00005C08091840090918500049690938900D6
:1004E000809388008FEF80932F0108C08091840053
:1004F0009091850084549C4948F3EBCFFF91EF9194
:10050000BF91AF919F918F917F916F915F914F912B
:100510003F912F910F900FBE0F901F90189585E37C
:1005200091E00E948D00089583E060E00E942B0519
:10053000109232010895CF93DF93EC0190E066238F
:1005400009F491E08DE0692F0E942B058BE0BE013C
:100550000E94B204DF91CF910895BC0185E391E040
:100560000E94E400089580E090E060E00E949B0219
:100570008AE590E00E94AD020E9494020895CF9314
:10058000DF93809138018F3F09F04EC080913A018E
:10059000C82FD0E080913901853039F1863030F4B0
:1005A000833049F0843009F03FC00FC0863061F1DC
:1005B0008730D1F537C080913E0190913F018C1773
:1005C0009D0791F1CE0160E009C080913E019091BC
:1005D0003F018C179D0741F1CE0161E00E949B0213
:1005E000D0933F01C0933E011FC080913C01909188
:1005F0003D018C179D07C1F0CE010E94AD02D09342
:100600003D01C0933C0110C083E061E00E942B05D6
:1006100064E170E080E090E00E944E0481E080930D
:10062000320102C00E949402DF91CF9108958FECB5
:1006300091E00E942F0790E0049724F18FEC91E065
:100640000E9443078F3FF1F4809338018FEC91E0D3
:100650000E944307809339018FEC91E00E94430789
:1006600080933A018FEC91E00E94430780933B0115
:100670008FEC91E068E371E044E050E00E94D00725
:1006800081E0089580E00895DF93CF9300D000D0FB
:10069000CDB7DEB79FEF998392E09A838B831C825C
:1006A0008FEC91E0BE016F5F7F4F44E050E00E940D
:1006B000D0070F900F900F900F90CF91DF9108957A
:1006C00061E020E432E44FE050E00E947805DC0174
:1006D000CB0163E970E00E948509882777FD80954A
:1006E000982F0E946B082CE53FE842E250E40E94FC
:1006F000F7080E9438089B016B3F710514F02AEF40
:1007000030E0C9010895809132018130F1F4809187
:100710003001909131018436910571F482E090E0CE
:100720000E94600390934101809340010E94440322
:10073000109231011092300180913001909131017D
:10074000019690933101809330010E94170381300C
:1007500039F40E94BF0210923401109233010EC08E
:1007600080913301909134010196909334018093EC
:1007700033018C5D954014F00E94B3026AE070E092
:1007800080E090E00E944E04089582E060E00E94C4
:100790000B0583E061E00E940B0584E061E00E94AC
:1007A0000B058BE061E00E940B058DE061E00E948B
:1007B0000B058CE061E00E940B058CE061E00E947B
:1007C0002B0585E391E069E070E00E94CB018AE5AA
:1007D00090E00E94AD0280E090E060E00E949B0209
:1007E0001092320110924101109240018FEC91E081
:1007F00040E855E260E070E00E94360608950E94ED
:1008000078040E94C5030E948303FDCF1F920F92BC
:100810000FB60F9211242F933F938F939F93AF9313
:10082000BF938091460190914701A0914801B091FA
:10083000490130914A010196A11DB11D232F2D5F61
:100840002D3720F02D570196A11DB11D20934A018F
:100850008093460190934701A0934801B0934901CA
:100860008091420190914301A0914401B0914501D2
:100870000196A11DB11D8093420190934301A09365
:100880004401B0934501BF91AF919F918F913F91EA
:100890002F910F900FBE0F901F901895EF92FF921F
:1008A0000F931F937B018C018FB7F8944091460101
:1008B0005091470160914801709149018FBF2FB756
:1008C000F8948091460190914701A0914801B09120
:1008D00049012FBF841B950BA60BB70BE816F90631
:1008E0000A071B0760F71F910F91FF90EF90089583
:1008F000789484B5826084BD84B5816084BD85B5FB
:10090000826085BD85B5816085BDEEE6F0E08081C1
:1009100081608083E1E8F0E0808182608083808173
:1009200081608083E0E8F0E0808181608083E1EB9A
:10093000F0E0808184608083E0EBF0E08081816082
:100940008083EAE7F0E08081846080838081826038
:100950008083808181608083808180688083109221
:10096000C10008951F93CF93DF93182FEB0161E02F
:100970000E940B05E12FF0E0E255FF4F8491833098
:1009800051F480918000806880938000D09389002A
:10099000C09388003CC0843051F480918000806214
:1009A00080938000D0938B00C0938A0030C0813048
:1009B00039F4209729F184B5806884BDC7BD27C06C
:1009C000823039F42097E1F084B5806284BDC8BDDF
:1009D0001EC0863041F48091B00080688093B000E2
:1009E000C093B30014C0873041F48091B00080629E
:1009F0008093B000C093B4000AC0C038D1051CF485
:100A0000812F60E002C0812F61E00E942B05DF9101
:100A1000CF911F910895282F30E0C90186569F4F2E
:100A2000FC0194912A573F4FF9018491882391F05A
:100A3000E82FF0E0EE0FFF1FE859FF4FA591B491AA
:100A4000662329F48C91909589238C9308958C9139
:100A5000892B8C930895482F50E0CA0182559F4FEF
:100A6000FC012491CA0186569F4FFC0194914A577C
:100A70005F4FFA0134913323D1F1222331F1233036
:100A800021F4809180008F7705C0243031F480916B
:100A900080008F7D8093800018C0213019F484B5C8
:100AA0008F7704C0223021F484B58F7D84BD0DC0C2
:100AB000263021F48091B0008F7705C0273029F4CB
:100AC0008091B0008F7D8093B000E32FF0E0EE0FB7
:100AD000FF1FEE58FF4FA591B491662329F48C9126
:100AE000909589238C9308958C91892B8C930895EC
:100AF000DF92EF92FF920F931F93A82FB0E0CD01EA
:100B000086569F4FFC01D490AA57BF4FFD01849198
:100B1000662311F490E001C09D2D6FEFE62E6FEF7C
:100B2000F62E6FEF062F6FE0162FE222F32204233A
:100B30001523682F70E0660F771F64587F4F20E001
:100B400030E040E050E0FB01A591B4910AC02E15C1
:100B50003F054007510709F440C02F5F3F4F4F4FFB
:100B60005F4F8C918D21891791F30AC02E153F0597
:100B70004007510791F12F5F3F4F4F4F5F4F03C029
:100B8000FB01A591B4918C918D21891779F720E013
:100B900030E040E050E0FB01A591B49104C02F5F2C
:100BA0003F4F4F4F5F4F8C918D218917C1F3CA0181
:100BB000B9012AE030E040E050E00E945A099B0170
:100BC000AC01205F3F4F4F4F5F4F84E056954795F4
:100BD000379527958A95D1F704C020E030E040E0B2
:100BE00050E0B901CA011F910F91FF90EF90DF9083
:100BF00008951F920F920FB60F9211242F933F93D7
:100C00004F935F936F937F938F939F93AF93BF9314
:100C1000EF93FF934091C600E091CB01F091CC019E
:100C2000CF01019660E870E00E9485099C018091E7
:100C3000CD019091CE012817390739F0E55BFE4FC1
:100C400040833093CC012093CB01FF91EF91BF9172
:100C5000AF919F918F917F916F915F914F913F9154
:100C60002F910F900FBE0F901F9018955F926F926B
:100C70007F928F929F92AF92BF92CF92DF92EF922C
:100C8000FF920F931F93CF93DF93EC013A014B0137
:100C9000413482E458078FE0680780E078070CF061
:100CA0007FC060E874E88EE190E0A40193010E94A7
:100CB000BA092150304040405040CA01B90122E0F9
:100CC00030E040E050E00E94BA0959016A01A601F3
:100CD0009501209530954095509594E0220F331F53
:100CE000441F551F9A95D1F760E074E284EF90E0BD
:100CF0000E94BA09CA01B9012FEF30E040E050E08C
:100D00000E945A09A40193010E94BA09C9018150A5
:100D10009F4F181619061CF4522E5A9403C05524DE
:100D20005394521A60E079E08DE390E0A4019301BE
:100D30000E94BA092150304040405040CA01B901D8
:100D400022E030E040E050E00E94BA092095309562
:100D50004095509583E0220F331F441F551F8A95FD
:100D6000D1F760E074E284EF90E00E94BA09CA0112
:100D7000B9012FEF30E040E050E00E945A09A40191
:100D800093010E94BA09C90181509F4F1816190694
:100D90001CF4822F815002C081E0821B851500F572
:100DA000E885F98581E090E00A8802C0880F991FE4
:100DB0000A94E2F7808360E079E08DE390E0A4019B
:100DC00093010E94BA092150304040405040CA016E
:100DD000B90122E030E040E050E00E94BA0904C0CE
:100DE000E885F98510829501EC81FD813083EE81E3
:100DF000FF812083EA85FB85208141E050E0CA0124
:100E00000E8402C0880F991F0A94E2F7282B2083D2
:100E1000EA85FB852081CA010F8402C0880F991FD3
:100E20000A94E2F7282B2083EA85FB8580810888D5
:100E300002C0440F551F0A94E2F7842B8083DF9190
:100E4000CF911F910F91FF90EF90DF90CF90BF90C7
:100E5000AF909F908F907F906F905F900895DC018E
:100E60001296ED91FC911397E058FF4F819191916B
:100E700080589F4F20813181821B930B60E870E086
:100E80000E9485090895CF93DF93DC011296ED91BE
:100E9000FC911397EF01CE57DF4F48815981E058FD
:100EA000FF4F80819181E058F0408417950719F435
:100EB0002FEF3FEF0CC0E40FF51F2081CA01019610
:100EC00060E870E00E9485099983888330E0C90159
:100ED000DF91CF910895FC01A085B18521898C9186
:100EE00090E0022E02C0959587950A94E2F780FF64
:100EF000F6CF0484F585E02D6083089584E091E0C9
:100F00009093D0018093CF018BE491E09093D20134
:100F10008093D10185EC90E09093D4018093D3012C
:100F200084EC90E09093D6018093D50180EC90E022
:100F30009093D8018093D70181EC90E09093DA01EF
:100F40008093D90186EC90E09093DC018093DB01E3
:100F500084E08093DD0183E08093DE0187E080936D
:100F6000DF0185E08093E00181E08093E101089555
:100F70000F931F93CF93DF938C01EB0109C0219650
:100F8000D801ED91FC910190F081E02DC801099507
:100F900068816623A1F7DF91CF911F910F9108958A
:100FA000EF92FF920F931F93CF93DF938C017B01FE
:100FB000EA010CC0D7016D917D01D801ED91FC9142
:100FC0000190F081E02DC80109952197209791F7B4
:100FD000DF91CF911F910F91FF90EF9008952F9285
:100FE0003F924F925F926F927F928F929F92AF92B9
:100FF000BF92CF92DF92EF92FF920F931F93DF93F6
:10100000CF93CDB7DEB73B014C0119012A016D89A1
:101010007E898F89988D6A197B098C099D09621ACE
:10102000730A840A950AA40193010E945A09E218DE
:10103000F30804091509A80197010E94BA092A0DAD
:101040003B1D4C1D5D1DB901CA01CF91DF911F9160
:101050000F91FF90EF90DF90CF90BF90AF909F9057
:101060008F907F906F905F904F903F902F9008955A
:1010700004D06894B111B5C0089598D088F09F57F6
:1010800090F0B92F9927B751A0F0D1F0660F771FD4
:10109000881F991F1AF0BA95C9F712C0B13081F0B4
:1010A0009FD0B1E008959CC0672F782F8827B85F44
:1010B00039F0B93FCCF3869577956795B395D9F715
:1010C0003EF490958095709561957F4F8F4F9F4F1F
:1010D0000895E89409C097FB3EF49095809570952B
:1010E00061957F4F8F4F9F4F9923A9F0F92F96E974
:1010F000BB279395F695879577956795B795F111E9
:10110000F8CFFAF4BB0F11F460FF1BC06F5F7F4F85
:101110008F4F9F4F16C0882311F096E911C0772397
:1011200021F09EE8872F762F05C0662371F096E8A0
:10113000862F70E060E02AF09A95660F771F881F6F
:10114000DAF7880F9695879597F9089597F99F672D
:1011500080E870E060E008959FEF80EC089500243F
:101160000A941616170618060906089500240A940C
:1011700012161306140605060895092E0394000C92
:1011800011F4882352F0BB0F40F4BF2B11F460FF21
:1011900004C06F5F7F4F8F4F9F4F089557FD90584A
:1011A000440F551F59F05F3F71F04795880F97FB2B
:1011B000991F61F09F3F79F08795089512161306E5
:1011C0001406551FF2CF4695F1DF08C01616170614
:1011D0001806991FF1CF8695710561050894089549
:1011E000E894BB2766277727CB0197F908950BD0A2
:1011F000C4CFB5DF28F0BADF18F0952309F0A6CFE9
:10120000ABCF1124EECFCADFA0F3959FD1F3950F9A
:1012100050E0551F629FF001729FBB27F00DB11D7A
:10122000639FAA27F00DB11DAA1F649F6627B00D0A
:10123000A11D661F829F2227B00DA11D621F739FF3
:10124000B00DA11D621F839FA00D611D221F749F01
:101250003327A00D611D231F849F600D211D822F48
:10126000762F6A2F11249F5750408AF0E1F088238F
:101270004AF0EE0FFF1FBB1F661F771F881F91509C
:101280005040A9F79E3F510570F060CFAACF5F3F55
:10129000ECF3983EDCF3869577956795B795F795CF
:1012A000E7959F5FC1F7FE2B880F911D9695879557
:1012B00097F90895629FD001739FF001829FE00D1E
:1012C000F11D649FE00DF11D929FF00D839FF00DC5
:1012D000749FF00D659FF00D9927729FB00DE11D71
:1012E000F91F639FB00DE11DF91FBD01CF0111244E
:1012F0000895991B79E004C0991F961708F0961B72
:10130000881F7A95C9F78095089597FB092E0726BF
:101310000AD077FD04D049D006D000201AF4709589
:1013200061957F4F0895F6F7909581959F4F0895A9
:10133000A1E21A2EAA1BBB1BFD010DC0AA1FBB1FD9
:10134000EE1FFF1FA217B307E407F50720F0A21B4B
:10135000B30BE40BF50B661F771F881F991F1A94B8
:1013600069F760957095809590959B01AC01BD01E2
:10137000CF01089597FB092E05260ED057FD04D006
:10138000D7DF0AD0001C38F4509540953095219550
:101390003F4F4F4F5F4F0895F6F7909580957095AA
:1013A00061957F4F8F4F9F4F0895AA1BBB1B51E143
:1013B00007C0AA1FBB1FA617B70710F0A61BB70BC5
:1013C000881F991F5A95A9F780959095BC01CD016A
:1013D0000895EE0FFF1F0590F491E02D0994F89405
:0213E000FFCF3D
:0A13E200000000006B07B807D007F9
:00000001FF
